:020000040800F2
:10000000880D0020B5010008E51A0008DD1A000877
:10001000E11A000871020008ED1C00080000000051
:10002000000000000000000000000000891B000824
:100030007502000800000000E91A00088D1B000886
:10004000CF010008CF010008CF010008CF01000850
:10005000CF010008CF010008CF010008CF01000840
:10006000CF010008CF010008CF010008CF01000830
:10007000CF010008CF010008CF010008CF01000820
:10008000CF010008CF010008CF010008CF01000810
:10009000CF010008CF010008CF010008CF01000800
:1000A000CF010008CF010008CF010008CF010008F0
:1000B000CF010008CF010008CF010008CF010008E0
:1000C000CF010008CF010008CF010008CF010008D0
:1000D000CF010008A11C0008CF010008CF010008D3
:1000E000CF010008CF010008CF01000800F002F89E
:1000F00000F050F814A696E8000CB244B344DA4578
:1001000001D100F047F8BAE80F000FA696E83000DA
:10011000A5EB040504EB0607AAEB0704A7F101070A
:100120004FEA15154FEA3414A4F10104AC4201D38F
:1001300000F030F813F0010F18BFFB1A43F0010371
:1001400000F001F8DBE71847042C0000242C000025
:10015000103A24BF78C878C1FAD8520724BF30C8F3
:1001600030C144BF04680C60704700007047000055
:100170000023002400250026103A28BF78C1FBD8B0
:10018000520728BF30C148BF0B6070471FB51FBD65
:1001900010B510BD00F031F81146FFF7F7FF01F080
:1001A00061FE00F04FF803B4FFF7F2FF03BC00F06C
:1001B00057F800000948804709480047FEE7FEE776
:1001C000FEE7FEE7FEE7FEE7FEE7FEE7FEE7FEE707
:1001D00004480549054A064B70470000911B00087A
:1001E000ED00000888070020880D00208809002005
:1001F00088090020704770477047754600F02CF85A
:10020000AE4605006946534620F00700854618B003
:1002100020B5FFF7DDFFBDE820404FF000064FF0AE
:1002200000074FF000084FF0000BAC46ACE8C009E7
:10023000ACE8C009ACE8C009ACE8C00921F007018E
:100240008D46704710B50446AFF300802046BDE8E8
:100250001040FFF7A8BF00000048704710000020C2
:1002600001491820ABBEFEE72600020070470000DF
:10027000FEE700007047000070B542F20C0604462D
:10028000C4F2020600F058FB3168C9071CD130687F
:10029000800644BF202030603068C00607D4306933
:1002A000C00704D1306840075CBF002070BD3068D3
:1002B000C00640F26030C2F2000021D40021326852
:1002C000520725D42AE000BFC4B10546601C10D1F6
:1002D0003068C007DBD03068C0071CBF30685FEAF9
:1002E000C070D4D03068C007F2D1D0E73068C00702
:1002F000CDD000F021FB401BA042F7D9032070BDF8
:10030000C16941F00201C16110213268520705D56F
:10031000C26941F0040142F00102C2613269D207B0
:1003200002D10120316070BDC26942F00402C26195
:10033000306920F0010030610120316070BD0000A3
:1003400080B586B00490012005900020029002A89C
:1003500001A900F0C3F806B080BD000000F036B976
:1003600000F0CAB9002A08BF7047F0B581B0144642
:100370000D460646002700BFEA5BB919012000239D
:1003800000F02EF9B81C87B2A742F5D301B0BDE842
:10039000F0407047014690F82100022816D1086805
:1003A000D1E90FC3026822F00E020260026822F057
:1003B00001020260012000FA03F2CCF8042081F867
:1003C00021000020002281F820207047042088634B
:1003D0000120002281F820207047000090F82110B1
:1003E000022923D1026840F2040C1168C4F2020C05
:1003F00021F00E01116013682F21C4F202018A421C
:1004000023F00103136015DD3023C4F202039A4286
:100410001CD04423C4F202039A421BD05823C4F2D6
:1004200002039A421CD14FF4803321E004218163FE
:10043000012070470823C4F202039A420ED01C2305
:10044000C4F202039A420BD1102311E04FF48073DF
:100450000EE000BF4FF480530AE000BF012307E025
:100460000CF168014FF080738A4208BF4FF480138B
:100470000121CCF8003080F82110416B00220029C6
:1004800080F8202004BF0020704780B588470020F6
:1004900080BD000080B541F20C00C4F202004FF0B4
:1004A000FF310022416042600160026000F090FA7A
:1004B000002080BDB0B5044600F03EFA054640F28B
:1004C0000000C2F200000078611C18BF044400BFA5
:1004D00000F032FA401BA042FAD3B0BD2DE9F04340
:1004E00081B040F26035C2F200052A7E012A03D1B4
:1004F000022001B0BDE8F08304460120266828767A
:100500004CF250308846FFF7B7FE022E1CD100286F
:100510004ED1002042F21004E861C4F202042068C7
:1005200040F004002060206840F0400020604CF261
:100530005030FFF7A1FE216821F004012160002165
:10054000297601B0BDE8F08390BB4FF0FF30C8F8CA
:100550000000D4E9027007EB8020874228D242F2E3
:100560001006C4F202064FF0000900BFC5F81C9047
:10057000306840F0020030607760306840F0400042
:1005800030604CF25030FFF777FE316821F0020105
:10059000316098B9D4E9020107F5806700EB81204A
:1005A0008742E3D300200021297601B0BDE8F08323
:1005B00001200021297601B0BDE8F083C8F8007061
:1005C0000021297601B0BDE8F083000042F210015D
:1005D000C4F20201086840F0800200200A607047FF
:1005E0002DE9F04381B040F26037C2F200071646B1
:1005F0003A7E012A04D1022001B0BDE8F08300BF99
:100600000546012038764CF250300C469946FFF7EB
:1006100033FE28B10021397601B0BDE8F08300BF78
:1006200042F210080020C4F20208F861D8F8000075
:1006300040F00100C8F800004CF250302680FFF76F
:100640001BFED8F80010002821F00101C8F80010A6
:1006500018BF0046DED1012DDCD00020F861D8F8AB
:100660000000310C40F00100C8F800004CF250309E
:100670006180FFF701FED8F80010002821F0010189
:10068000C8F80010C6D1E81E10F1030F4FF00000AB
:10069000C0D8F861D8F8000040F00100C8F80000A8
:1006A0004CF25030A4F80490FFF7E6FDD8F80010A3
:1006B000002821F00101C8F80010ABD10020F8613A
:1006C000D8F800004FEA194140F00100C8F80000D6
:1006D0004CF25030E180FFF7CFFDD8F80010002831
:1006E00021F00101C8F8001018BF0046002139763A
:1006F00001B0BDE8F083000042F20400C4F2020041
:10070000C16809065CBF0020704740F22311C4F2A3
:100710006751016048F6AB11CCF6EF510160C0683B
:10072000C0B2C009704700002DE9F04F82B00E68DA
:10073000002E00F0FD8041F20042C4F201020423C9
:1007400040F2004E904208BF03234FF6FF7CC4F2F4
:10075000010E009300240123C1F2100C4FF0000A97
:100760004FF000094BE000BF41F20002C4F2010269
:10077000009F904208BF022704F00C030F229A400A
:100780002BEA020207FA03F34FEA9A051A4346F8E6
:1007900025204E6840F20C45F202DEF8082054BFD6
:1007A00022EA080242EA0802C4F20105CEF8082053
:1007B0002A68B30254BF22EA080242EA08022A6009
:1007C000B303DEF8042054BF22EA080242EA08021A
:1007D000F303CEF80420DEF800204FF0010354BFED
:1007E00022EA080242EA0802CEF800200E680AF166
:1007F000010A36FA0AF204F1040400F0998003FABF
:100800000AFB16EA0B08F1D04E68664512DC122E80
:1008100056D8DFE806F0350B4D4955555555555519
:100820005555555555555545510000BFD1F80C90BB
:1008300046E000BF4FF6FF72C1F2210296420FDC84
:100840000022C1F2110296421AD00022C1F2120215
:10085000964215D00022C1F22102964210D02FE01C
:100860000022C1F2220296420AD00022C1F23102D5
:10087000964205D00022C1F23202964220D100BF3A
:100880008A684AB1012A14BFC0F814B0C0F810B089
:100890004FF0080914E000BF4FF0040910E000BF5A
:1008A000CA6802F104090BE04FF0000908E000BF3C
:1008B000CA6802F1080903E0CA6802F10C0900BF26
:1008C00002462646B8F5807F24BF0432203E1768D2
:1008D0000F25B54027EA050509FA06F635431560E8
:1008E000CA79D2067FF582AF41F21803C4F202033F
:1008F0001A68AEF57E7642F001021A601A6802F0BC
:1009000001020192019A2AF0030256F802B040F661
:100910000002C4F20102904208D040F60042C4F244
:10092000010290427FF420AF012725E7002723E74B
:1009300002B0BDE8F08F000040F28070C2F200000B
:100940000068704740F2000040F28071C2F200007F
:10095000C2F2000100780A68104408607047000085
:1009600080B542F20000C4F20200016841F01001BB
:100970000160032000F08EF80F2000F005F800F071
:1009800029F8002080BD000070B540F20006C2F2D8
:10099000000640F208013278C2F200014FF47A7387
:1009A0000968B3FBF2F20446B1FBF2F1084600F02D
:1009B000FDFB0F2C4FF0010508D838B94FF0FF3080
:1009C00021460022002500F039F87460284670BDE9
:1009D0007047000082B041F21800C4F202000168C2
:1009E000022241F001010160016801F00101019161
:1009F0000199416841F080514160406800F08050A9
:100A0000009000980420C4F20100016862F31A61AA
:100A1000016002B070470000002848BF704700F036
:100A20001F01012202FA01F11C2202EAD0004EF25B
:100A30000012CEF2000281507047000010B54EF651
:100A40000C5CCEF2000CDCF80030C3F3022E8EF00A
:100A50000704042C28BF0424BEF103034FF0FF3E1B
:100A60000EFA04F438BF0023A14399400EFA03F3B1
:100A70009A43114300F00F0200F160430901043A68
:100A800003F564436244002848BF02F10C03197067
:100A900010BD00004EF60C51CEF200010A684FF670
:100AA000FF031A4060F30A2242F0806040F0FD70BC
:100AB00008607047002804BF012070472DE9F0430B
:100AC00081B042F20008C4F202080446D8F80000DF
:100AD0000D4600F0070081420CD9D8F8000020F044
:100AE00007002843C8F80000D8F8000000F007000D
:100AF000A8426CD1206841F204098107C4F20209BE
:100B000017D5410705D5D9F8001041F4E061C9F8BF
:100B10000010010705D5D9F8001041F46051C9F85B
:100B20000010D9F80010A26821F0F0011143C9F8B3
:100B30000010C00742D1D8F8000000F0070085423D
:100B40000CD2D8F8000020F007002843C8F80000B5
:100B5000D8F8000000F00700A84238D1206841070B
:100B600007D5D9F80010E26821F4E0611143C9F813
:100B70000010000708D5D9F80000216920F4605062
:100B800040EAC100C9F80000D9F8002002F00C00CA
:100B9000082841F20020C0F27A004DD142F63C53C1
:100BA000C2F38341C0F60003595CD20338D440F647
:100BB0000010C0F23D0048433EE000BF606859F8B5
:100BC000041C022808D0012826D1890306D401205C
:100BD00001B0BDE8F08300BF8901F8D5D9F8001055
:100BE00021F003010843C9F80000FFF7A5FE0646FF
:100BF00041F28837D9F80000616800F00C00B0EBD2
:100C0000810F98D0FFF798FE801BB842F2D90320DD
:100C100001B0BDE8F08300BF8907D8D5DEE700BF8B
:100C2000D9F8002042F63A53C2F34042C0F600031E
:100C30009A5C4843B0FBF2F0D9F8001042F6225219
:100C4000C1F30311C0F60002515C40F2080220FA21
:100C500001F140F20400C2F200000068C2F200029A
:100C60001160FFF791FE002001B0BDE8F0830000A5
:100C700070B541F20005C4F20205FFF75DFE296878
:100C8000044641F0010028602868800706D4FFF779
:100C900053FE001B0228F7D9032070BD28681021DD
:100CA00061F3C7002860FFF747FE0446002041F2C9
:100CB00088366860686810F00C0F07D0FFF73CFEBC
:100CC000001BB042F6D9032070BD00BF40F2040003
:100CD000C2F2000040F2080141F200220068C2F2B4
:100CE0000001C0F27A020A60FFF74EFE00281CBF26
:100CF000012070BDFFF720FE2968044621F08070B6
:100D0000286000BF2868800106D5FFF715FE001B8C
:100D10000228F7D9032070BD00206860FFF70CFEA1
:100D20002968044621F41020286000BF2868800349
:100D300008D5FFF701FE001B64284FF0030088BFB1
:100D400070BDF3E7286820F480202860686A40F0CE
:100D5000807068620020A86070BD000040F208004A
:100D600041F20401C2F20000C4F202010068096805
:100D700042F63252C1F30221C0F60002515CC84073
:100D80007047000040F2080041F20401C2F2000086
:100D9000C4F202010068096842F63252C1F3C2216E
:100DA000C0F60002515CC84070470000002804BF34
:100DB000012070472DE9F04182B00446007841F2ED
:100DC0000006C007C4F202060CD0706800F00C00E8
:100DD000042840F081803068800303D560680028D3
:100DE00000F04681207880071BD5706810F00C0F4A
:100DF00009D0706800F00C00082840F08780706807
:100E0000C00300F183803068800703D52069012882
:100E100040F02E813068616920F0F80040EAC1009E
:100E200030602078000713D4207840072CD4E5697F
:100E3000002D00F01881706800F00C00082840F0C8
:100E4000A780012D40F00481012002B0BDE8F081AF
:100E5000A069002800F084800020C4F24220012113
:100E6000C0F88014FFF768FD054600BF706A800770
:100E700000F1B280FFF760FD401B0228F6D9032085
:100E800002B0BDE8F08100BFF0695FEAC00808D495
:100E9000F06940F08050F061F06900F080500090FF
:100EA000009847F20007C4F200073868C00549D42B
:100EB000386840F480703860FFF73EFD054600BF9B
:100EC0003868C0053ED4FFF737FD401B6428F7D9CA
:100ED000032002B0BDE8F081706800F00C00082823
:100EE00003D17068C0033FF576AF616830680029B0
:100EF00000F00C81B1F5A02F00F00081B1F5803F2A
:100F000040F01A8140F480301CE100BF20690028C5
:100F100040F20000C4F2422000F08880012101600C
:100F2000FFF70AFD054600BF306880073FF572AF46
:100F3000FFF702FD401B0228F6D9032002B0BDE8EE
:100F4000F08100BFE168306A002900F09D8005292A
:100F500000F09280012940F0AF8040F00100B1E044
:100F60000020C4F242200021C0F88014FFF7E4FC06
:100F7000054600BF706A80077FF556AFFFF7DCFCBF
:100F8000401B0228F6D9032002B0BDE8F08100BF63
:100F90000027C4F2422700203866FFF7CDFC022D5F
:100FA00005460DD13068800140F1DE80FFF7C4FCBA
:100FB000401B02284FF00300F4D902B0BDE8F081D5
:100FC000306880014FD5FFF7B7FC401B02284FF077
:100FD0000300F5D9F1E700BF40F20800C2F20000BB
:100FE000006844F6D351C1F26201A0FB0101480A36
:100FF000019000BF00BF0198411E002801913FF4FD
:1010000013AF00BF0198411E002801913FF40CAFBF
:1010100000BF0198411E002801913FF405AF00BFB9
:101020000198411E00280191E4D1FDE600210160F4
:10103000FFF782FC054600BF306880077FF5F1AE00
:10104000FFF77AFC401B02284FF00300F4D9B4E705
:101050007068216A00F480328A4209D1616A00F422
:101060007010884204D1002002B0BDE8F08100BFBA
:10107000012002B0BDE8F08140F004003062306A27
:1010800040F001001EE000BF20F001003062306A35
:1010900020F004003062FFF74FFC054641F288372C
:1010A000306A800720D5FFF747FC401BB8424FF05D
:1010B0000300F5D981E700BF20F001003062306AFB
:1010C00020F004003062FFF737FC054641F2883714
:1010D000306A800708D4FFF72FFC401BB842F7D9CD
:1010E000032002B0BDE8F081B8F1000F3FF59FAEDC
:1010F000F06920F08050F06199E600BF40F4802054
:101100003060306840F480301CE000BF20F4803054
:101110003060306820F480203060FFF70DFC054619
:10112000306880037FF55EAEFFF706FC401B642845
:101130004FF00300F4D940E720F48030306030688D
:1011400020F480203060FFF7F7FB0546306880030D
:101150003FF548AEFFF7F0FB401B6428F6D90320AB
:1011600002B0BDE8F08100BF206AB0F5803F05D134
:101170007168A26821F40031114371607168626A7C
:1011800021F4741111430843706001203866FFF7A1
:10119000D3FB0446306880013FF565AFFFF7CCFB19
:1011A000001B02284FF00300F4D906E7411E00207F
:1011B000B0EB116F1CBF012070474EF21002CEF24F
:1011C000000251604EF62351CEF20001F0230B7065
:1011D0000721906011607047704700007047000061
:1011E000B0B582B001680A68CC684B6902F02F057F
:1011F000202D04F0200505D125B102B0BDE8B04096
:1012000000F0CEBC5FEA027C1EBF03F0010E04F4C6
:10121000907313EB0E0341D1036BD50618D5012B48
:1012200016D114F0100313D0002201920A68019223
:101230004A680192019A496949064BD4818DC28D51
:10124000C38D002B18BF914240F0F48102B0B0BDB5
:1012500013062DD514F080032AD090F84120212ABE
:10126000F4D18268B2F5805F03D10269002A00F0F0
:101270006782026A531C036212784A60C28C013A88
:101280001304C284E2D1C86820F08000C860C86836
:1012900040F04000C86002B0B0BD00BFD30718BF27
:1012A00014F4807340F0D080530700F1D380D8E06D
:1012B0005206CBD514F04002C8D0CA6822F04002D2
:1012C000CA60202180F8411002B0BDE8B04000F0B3
:1012D00003BC00BFC16B0A68526893B2002BB5D043
:1012E000858DAB42B2D2C2858969202900F0A180E8
:1012F000016851E8031F026821F4807142E803137A
:10130000DBB1016851E8031F026821F4807142E8F3
:10131000031393B1016851E8031F026821F480713F
:1013200042E803134BB1016851E8031F026821F43E
:10133000807142E80313002BDAD1016851E8051FE0
:10134000026821F0010142E80513C3B3016851E8C6
:10135000051F026821F0010142E805137BB3016813
:1013600051E8051F026821F0010142E8051333B37B
:10137000016851E8051F026821F0010142E80513E8
:10138000002BDAD11BE000BF016851E8051F02689D
:1013900021F0400142E80513DBB1016851E8051F67
:1013A000026821F0400142E8051393B1016851E859
:1013B000051F026821F0400142E805134BB10168A6
:1013C00051E8051F026821F0400142E80513002B97
:1013D000DAD1202180F8421000210163016851E830
:1013E000031F026821F0100142E80313DBB101681A
:1013F00051E8031F026821F0100142E8031393B182
:10140000016851E8031F026821F0100142E803134C
:101410004BB1016851E8031F026821F0100142E856
:101420000313002BDAD1C16B04460846FEF7B2FF66
:10143000204602214163818DC28D891A89B202B092
:10144000BDE8B040FFF7C8BE436C43F001034364FE
:10145000530706D5BEF1000F03D0436C43F00203DF
:101460004364930706D5BEF1000F03D0436C43F0ED
:1014700004034364BCF1000F06D55EEA050303D004
:10148000436C43F008034364436C002B3FF4DEAE2F
:10149000920605D525B1044600F082FB216820465E
:1014A0004969426C01F0400102F00802891800F01D
:1014B000B98000BF016851E8031F026821F49071F0
:1014C00042E80313BBB3016851E8031F026821F42B
:1014D000907142E8031373B3016851E8031F026877
:1014E00021F4907142E803132BB3016851E8031F04
:1014F000026821F4907142E80313002BDAD11AE05C
:10150000016851E8051F026821F0010142E8051356
:10151000DBB1016851E8051F026821F0010142E8D2
:10152000051393B1016851E8051F026821F001011C
:1015300042E805134BB1016851E8051F026821F02C
:10154000010142E80513002BDAD1016B012924D1F6
:10155000016851E8031F026821F0100142E80313FB
:10156000DBB1016851E8031F026821F0100142E875
:10157000031393B1016851E8031F026821F01001C1
:1015800042E803134BB1016851E8031F026821F0E0
:10159000100142E80313002BDAD1202180F8421019
:1015A0000021016301684969490640F1C38001686F
:1015B00051E8051F026821F0400142E80513DBB144
:1015C000016851E8051F026821F0400142E8051357
:1015D00093B1016851E8051F026821F0400142E81B
:1015E00005134BB1016851E8051F026821F0400165
:1015F00042E80513002BDAD1C16B002900F09A8074
:1016000041F69532C0F60002044608464A63FEF7EA
:10161000E5FE00283FF41AAEE06B416B02B0BDE876
:10162000B04008470446FFF7D9FD0020606402B0CF
:10163000B0BD00BF891A00BF026852E8032F0368DB
:1016400022F4907243E80325BDB3026852E8032FE9
:10165000036822F4907243E8032575B3026852E8E8
:10166000032F036822F4907243E803252DB3026828
:1016700052E8032F036822F4907243E80325002DFB
:10168000DAD11AE0026852E8052F036822F001025D
:1016900043E80525DDB1026852E8052F036822F012
:1016A000010243E8052595B1026852E8052F036859
:1016B00022F0010243E805254DB1026852E8052FEA
:1016C000036822F0010243E80525002DDAD120222B
:1016D00080F8422000220263026852E8032F036868
:1016E00022F0100243E80325DDB1026852E8032F1F
:1016F000036822F0100243E8032595B1026852E81E
:10170000032F036822F0100243E803254DB102685D
:1017100052E8032F036822F0100243E80325002D4E
:10172000DAD1022289B2426302B0BDE8B040FFF7CD
:1017300053BD00BF02B0BDE8B040FFF74FBD00BFD2
:10174000026A32F8023B6FF35F234B60026295E559
:10175000002804BF0120704710B5044690F84100EE
:1017600028B9002084F84000204600F063F82420C7
:1017700084F841002068D4E90212C36823F40053BE
:10178000C360036923F440531A430261D4E904237C
:101790001143C268194341F20C639A431143C1607B
:1017A0004169A26921F44071114343F60002C4F279
:1017B00001029042416103D0FFF7D0FA02E000BF7E
:1017C000FFF7E0FAD4E90023192148439900B0FB60
:1017D000F1F048F21F5CC5F2EB1CA0FB0C314FF698
:1017E0009C734909C0F6FF7301FB0300322303EB2E
:1017F0000010A0FB0C03F02000EA531000EB0110D6
:10180000C3F34311084490601069202120F49040F4
:101810001061506920F02A005061D06840F40050F7
:10182000D0600020606484F8411084F84210606346
:1018300010BD000070B586B040F60004C4F201048B
:10184000006804F54051002688420596CDE90366FC
:10185000029601D006B070BD41F21800C4F2020039
:10186000016802AD41F480410160016801F48041EA
:1018700001910199016841F0040101600068294665
:1018800000F00400019001984FF4007002900220D3
:101890000390032005902046FEF746FF4FF480603A
:1018A000CDE90206204629460496FEF73DFF252095
:1018B00003210022FFF7C2F82520FFF7ADF806B09C
:1018C00070BD000090F84230202B07D100294FF066
:1018D000010318BF002A05D1184670470223184695
:1018E000704700BF00230363816222218285C28585
:1018F000436480F842100169006819B1C16841F47D
:101900008071C160416941F001014161C16841F0EC
:101910002001C16018467047B0B540F27004C2F2B1
:10192000000400686168884218BFB0BD254615F8FC
:10193000040B00F0DBF8284621460122BDE8B04048
:10194000FFF7C0BF2DE9F04381B0044690F8410095
:10195000202809D100294FF0010018BF002A07D123
:1019600001B0BDE8F08300BF022001B0BDE8F08304
:101970000020606421201D460E4684F84100174671
:10198000FEF7DAFFA784E784A1688146B1F5805F9E
:1019900002D1206900285DD037460020E28C216802
:1019A000002A5DD06A1C24D0002D4AD0804600BF9A
:1019B0000868000608D4FEF7BFFFA0EB0900A842A4
:1019C0007AD82168C868F3E717B117F8010B04E06B
:1019D00038F8020B00276FF35F204860E08C013875
:1019E000E084E08C0028E3D13AE000BF0A681206E8
:1019F00009D40A68120606D40A6812065CBF0A688F
:101A00005FEA0262F2D51FB117F8012B05E000BFB3
:101A100030F8022B00276FF35F224A60E28C013A14
:101A2000E284E28C002AE4D11AE000BF30F8022BF5
:101A300000276FF35F224A60E28C013AE284E28C75
:101A400072B10A68120635D5002FEFD017F8012BB6
:101A5000F1E700BF00273046E28C2168002AA1D1BF
:101A6000086840061ED42DB3681C14D108684006CF
:101A70002AD40868400627D40868400624D4086899
:101A800040064FF00000F1D50DE000BF2068C168AE
:101A90000068400618D4FEF74FFFA0EB0900A842EB
:101AA000F4D909E00020202184F8411001B0BDE8FC
:101AB000F08300BFFEF740FF0320202184F841108F
:101AC00001B0BDE8F08300BF0020202184F8411060
:101AD00001B0BDE8F083000070470000FEE70000A1
:101AE000FEE70000FEE7000070470000014640F2FC
:101AF0004C30C2F2000000F02FB800008188C2888C
:101B000091422FBF881A0089891A084480B2704711
:101B100002810022C0E90012704700008288C38859
:101B20009A4204BFFF20704780B503F1010CB0F862
:101B300008E01FFA8CF27245D0F800E04FF0000286
:101B40001EF8033028BF94460B70A0F806C0BDE80D
:101B5000804010467047000080B5B0F804C0B0F86F
:101B600008E00CF101039AB2724528BF0023B0F8D7
:101B700006E09AB2724504BFFF2080BD026802F8F9
:101B80000C108380002080BD70470000FEF7DABE95
:101B900070470000406A0021C185C184FFF71EBB69
:101BA00081B090F84210222921D183680246B3F512
:101BB000805F09D152F8281F52F8183C002B63D0DF
:101BC00003685B680AE000BF52F8281F13B9036975
:101BD000002BF5D003685B6803F07F030B7011687E
:101BE00001311160C18D01390A04C18502D001B0F3
:101BF000704700BF0168CA6822F02002CA60CA6844
:101C000022F48072CA604A6922F001024A612021EE
:101C100080F8421000214163026B012A3CD101632C
:101C2000016851E8031F026821F0100142E8031324
:101C3000DBB1016851E8031F026821F0100142E89E
:101C4000031393B1016851E8031F026821F01001EA
:101C500042E803134BB1016851E8031F026821F009
:101C6000100142E80313002BDAD101680A68D2069A
:101C700006D5002200920A680092496800910099F6
:101C8000818D01B0FFF7A8BA026852686FF35F2236
:101C900021F8022B8162A5E701B0FFF73DBE0000ED
:101CA00040F27400C2F20000FFF79ABA40F24C30E2
:101CB000C2F20000FFF722BF40F24C3040F2C801F0
:101CC000C2F20000C2F200018022FFF721BF000033
:101CD00080B582B040F24C30C2F200000DF1070135
:101CE000FFF71CFF9DF8070002B080BDFEE7000073
:101CF000B0B582B0FFF7DAFF30B1FFF7E9FF01229C
:101D00008DF8040001E000BF002240F24810C2F24A
:101D1000000001A900F0C8FA40F2BC04C2F20004BD
:101D20002578FEF709FE4DB16168401A40F6B831DA
:101D3000884224BF0020207002B0B0BDA168401AC4
:101D4000B0F5967FF8D3FEF7F7FDA0604FF48070F2
:101D5000ADF8050002208DF8070040F24810C2F2ED
:101D600000000DF105020121032300F089FE02B0FD
:101D7000B0BD0000B0B582B040F24810C2F2000021
:101D80000021002400F078FA40F2BC05C2F2000500
:101D90002C70FEF7D1FD68604FF60040C0F60000E1
:101DA000006845F2AA51C5F2AA51884222D144F2F4
:101DB0000004C0F60004626820680021C2F6FE71CB
:101DC0000840B0F1005F26D11546FEF751FFFEF73F
:101DD00061FB4EF21000CEF2000000210160416074
:101DE0008160206880F30888284602B0BDE8B040D2
:101DF000004700BF4FF48070ADF8050002208DF859
:101E0000070040F24810C2F200000DF10502012166
:101E1000032300F035FE02B0B0BD0000B0B544F2BF
:101E20000004C0F60004626820680021C2F6FE715A
:101E30000840B0F1005F18BFB0BD1546FEF718FFAF
:101E4000FEF728FB4EF21000CEF2000000210160E8
:101E500041608160206880F308882846BDE8B04072
:101E60000047000090B0FEF77BFD00240120CDE983
:101E70000B44CDE9094406900A904FF4E0104FF46A
:101E8000803102250F9006A8CDE90714CDE90D5148
:101E9000FEF78CFF20B1EFF3108072B6FEE700BFB3
:101EA0000F20CDE901054FF48060CDE9040401A8BD
:101EB00002210394FEF7FEFD20B1EFF3108072B60D
:101EC000FEE700BF41F21800C4F20200016840F2D0
:101ED000700441F0200101600168C2F2000401F0C9
:101EE0002001069106990168002241F00401016079
:101EF000006843F6000100F0040006900698C4F262
:101F00000101204640F8041F4FF4E1310C23C0E9E1
:101F10000112C0E90322C0E90532C261FFF718FCD3
:101F200020B1EFF3108072B6FEE700BFFFF7C4FEEA
:101F3000201D21460122FFF7C5FCFFF71BFF00BF54
:101F4000FFF7D6FEFCE7000070B582B00C46FEF746
:101F5000F3FC40F2BC05C2F2000529786860032951
:101F600007D8DFE801F00337091F00BF20780028F9
:101F70004CD002B070BD00BF2078022842D1FEF7DD
:101F8000EFF940F20C06C2F2000630686278A11C3C
:101F9000FEF7E8F9FEF7E2F960783168084430604E
:101FA00003201BE02078002800F00681022829D1B8
:101FB000FEF7D6F940F20C05C2F2000528686278F7
:101FC000A11CFEF7CFF9FEF7C9F96078296808442B
:101FD000286004E02078012814D10220287040F203
:101FE0000310ADF8000000208DF8020040F2481008
:101FF000C2F200006A460121032300F041FD02B055
:1020000070BD00BF0020287002B070BDA07801280C
:1020100000F020810028ACD1FEF7A2F944F20004C0
:10202000C0F600042046FEF78BF904F58060FEF749
:1020300087F904F50060FEF783F904F54060FEF7C8
:102040007FF904F58050FEF77BF904F5A050FEF708
:1020500077F904F5C050FEF773F904F5E050FEF788
:102060006FF904F50050FEF76BF904F51050FEF718
:1020700067F904F52050FEF763F904F53050FEF7D8
:102080005FF904F54050FEF75BF904F55050FEF798
:1020900057F904F56050FEF753F904F57050FEF758
:1020A0004FF904F58040FEF74BF904F58840FEF740
:1020B00047F904F59040FEF743F904F59840FEF720
:1020C0003FF904F5A040FEF73BF904F5A840FEF700
:1020D00037F904F5B040FEF733F904F5B840FEF7E0
:1020E0002FF904F5C040FEF72BF904F5C840FEF7C0
:1020F00027F904F5D040FEF723F904F5D840FEF7A0
:102100001FF904F5E040FEF71BF904F5E840FEF77F
:1021100017F904F5F040FEF713F904F5F840FEF75F
:102120000FF904F50040FEF70BF904F50440FEF743
:1021300007F904F50840FEF703F904F50C40FEF733
:10214000FFF804F51040FEF7FBF804F51440FEF725
:10215000F7F804F51840FEF7F3F804F51C40FEF715
:10216000EFF804F52040FEF7EBF804F52440FEF705
:10217000E7F804F52840FEF7E3F804F52C40FEF7F5
:10218000DFF804F53040FEF7DBF804F53440FEF7E5
:10219000D7F804F53840FEF7D3F84FF60040C0F604
:1021A0000000FEF7CDF8FEF7D9F840F20C00C2F2BD
:1021B00000000460012011E7A07801287FF4D9AE67
:1021C00045F2AA5044F20004C5F2AA50C0F6000439
:1021D0000090FEF7C5F84FF60040C0F600006946D3
:1021E00004220426FEF7BEF8FEF7B8F840F203100A
:1021F000ADF8050040F248102E700025C2F2000034
:102200000DF10502012103238DF8075000F038FC81
:102210006420FEF74FF9666820680021C2F6FE715F
:102220000840B0F1005F0FD1FEF722FDFEF732F952
:102230004EF21000CEF20000056045608560206817
:1022400080F30888B04700BF4FF47A70FEF732F988
:10225000FAE700BF4FF60040C0F60000006845F204
:10226000AA51C5F2AA5188427FF483AE02B0BDE8FC
:102270007040FFF7D3BD000080F8001240F25831E3
:10228000C2F2000109680022A0F8F821C0E9382252
:1022900080F8E820C0E93011C0E93222C0E93422D8
:1022A000C0E93622704700002DE9F04F89B004469E
:1022B000002A00F0B58204F1EC0048F2203544F227
:1022C000901E079004F1E40092468946CEF6B85578
:1022D000C7F2DC6E059004F1E80000264FF0000B19
:1022E000049006E084F8F9010BF1010BD34500F0EE
:1022F000978294F8F82119F80B10022A08D1552971
:1023000084F8F861F0D0AA2914BF00200120E9E781
:1023100094F8F931AA294FF000074FF0000008BFE8
:10232000571C092B84F8F871DCD8DFE813F045005E
:1023300047000B00FB008900430149013B015101AB
:10234000D10000BFD4F8F00184F8FC11484085EAC0
:102350005001C20708BF410883074CF2194785EABC
:1023600051024FEA4073C0F26D7758BF4A0807EA3E
:10237000E373070748F63207C0F6DB6748BF7B40C8
:10238000C70641F26407C1F6B75748BF7B408006D5
:1023900042F2C800C3F66E3048BF434083EA921051
:1023A000890648BF80EA0E00910648BF6840C4F81D
:1023B000F001032096E700BF96E700BF4FFA81FCCB
:1023C00084F8FB11C94385EA5102CB0784F8FA610E
:1023D00008BF4A088F074CF2194085EA52034FEABA
:1023E0004177C0F26D7058BF530800EAE7770807DD
:1023F00048F63200C0F6DB6048BF4740C80641F2ED
:102400006400C1F6B75048BF4740880642F2C80092
:10241000C3F66E3048BF474087EA9310910648BF25
:1024200080EA0E00990648BF6840BCF1000FC4F86E
:10243000F0014EBF022084F8FC61032052E700BF88
:1024400094F8FA01079B421C84F8FA21D4F8F02191
:10245000195482EA010085EA5001C20708BF410809
:1024600083074CF2194785EA51024FEA4073C0F2E4
:102470006D7758BF4A0807EAE373070748F6320743
:10248000C0F6DB6748BF7B40C70641F26407C1F670
:10249000B75748BF7B40800642F2C800C3F66E3093
:1024A00048BF434083EA9210890648BF80EA0E0085
:1024B000910648BF684094F8FD11C4F8F001481E29
:1024C000010684F8FD017FF40FAF05200AE700BF85
:1024D000552940F0698140F2583194F8FB31C2F23D
:1024E000000194F8FC0194F8FE210968FE2BC4F861
:1024F000C41079D0FF2B40F08B8094F8E68094F8DC
:10250000E730A0EB0802A3EB0803D7B2DBB29F428F
:1025100040F28880D4F8D0000130C4F8D000002008
:10252000E0E600BFD4F8F00184F8FD11484085EAE8
:102530005002C30784F8FE1108BF420887074CF217
:10254000194685EA52034FEA4077C0F26D7658BFCC
:10255000530806EAE777060748F63206C0F6DB6658
:1025600048BF7740C60641F26406C1F6B75648BF79
:102570007740800642F2C800C3F66E3048BF47403D
:1025800087EA9310920648BF80EA0E009A0648BF79
:102590006840C4F8F00104200026002908BF052087
:1025A000A0E600BFD4F8EC0140EA0120C4F8EC0139
:1025B000082097E60806C4F8EC01062092E600BF62
:1025C000D4F8EC0140EA0140C4F8EC01072089E6A8
:1025D000D4E97B020843C4F8EC01504001304FF0CD
:1025E000000008BF09207DE6D4F8D800059A013024
:1025F000C4F8D800002084F8E200A4F8DC00A4F8B5
:10260000E00010601071C4E93011C4F8C80069E638
:102610005FB20026F046B7F1FF3F1BDD94F80032B1
:1026200007993EE094F8EC1094F8E470404584F883
:10263000E60000F0B7806FEA08060644089194F8B7
:10264000E210B4F8DC30F6B2032E06913AD2154609
:102650006AE000BF94F8E830C4F8C810984229D165
:10266000411C94F80002089284F8E81000F03CFA4B
:102670000B2812D394F8E820FF20049B00960190C9
:102680002046FF210126029600F034FA40F258302D
:10269000C2F200000068C4F8C00094F80032DDE91E
:1026A000071207F03F00FFF74FFC0020C646002648
:1026B00018E600BFD4F8D400C6460130C4F8D400F0
:1026C00000200FE6154602F0FC0C4FF0000E00BF94
:1026D000791CFEB201F00F0106EB460601EB410149
:1026E00004EB860604EB8101B6798979BA1C02F005
:1026F0000F023144FE1C02EB420206F00F0604EB0F
:10270000820206EB4606927904EB8606B6791144FE
:102710003A1D0EF1040E02F00F0731445FFA8EF2FB
:102720006245A3EB0103D3D115F003014FF000067E
:1027300025D07A1C02F00F0E07EB470204EB820251
:1027400092790129A3EB020302D1774617E000BF7B
:10275000BA1C02F00F0C0EEB4E0204EB82029279CF
:102760000229A3EB020301D1674608E00CEB4C02FF
:1027700004EB82029279F91C01F00F079B1A069A6A
:10278000A8EB0001114484F8E21048F2203544F22D
:10279000901E0899CEF6B855C7F2DC6E84F8E47046
:1027A000A4F8DC30814201D100209BE5081A4FF0EB
:1027B0000008C0B2069000BFF8B200EB400604EB80
:1027C00086008179C379027A8088029143F0800182
:1027D00040F28033089700902046C2F2000340F296
:1027E000FF3701975746CA46F14600F083F940F299
:1027F0005830C2F20000006808F1010844F82600D1
:10280000089806990130CE46D146BA4600F00F0727
:102810005FFA88F0002688424FF00000CCD361E5D3
:1028200000F04EF994F8E72094F8E6608146931B97
:10283000D4E93108D9B240F258370F29C2F2000763
:10284000C7F8009036D894F8E2708F4232D994F8E5
:10285000E400184400F00F0000EB400004EB800699
:10286000B17994F8000201F10B0700F03DF98742BD
:1028700000F2DA8094F8E720B188F07940F2FF3373
:10288000B7793272CDE9001340F2803340F0800115
:10289000C2F200032046029700F02CF940F25830B3
:1028A000C2F20000006894F8E7103060481C84F819
:1028B000E700B9E0B24200F0B780A9EB0000C00821
:1028C0007C2800F2B18094F8E410F64301EB41005B
:1028D00054F820C03244D2B204EB8007A9EB0C00BC
:1028E000032A03F0030C46D303F0FC0E002600BFBE
:1028F000CAB202EB420254F822300436A9EB0303B9
:10290000834288BF04EB820701F1010202F00F024B
:1029100002EB420254F8225088BF1846A9EB050387
:10292000834288BF04EB820701F1020202F00F022A
:1029300002EB420254F8225088BF1846A9EB050367
:10294000834288BF04EB820701F1030202F00F0209
:1029500002EB420254F8225088BF1846A9EB050347
:10296000834284BF04EB820718460431F2B27245F9
:1029700001F00F01BCD1BCF1000F2FD001EB4102DF
:1029800054F82230A9EB0303834288BF04EB82078B
:10299000BCF1010F22D04A1C02F00F0202EB4202EE
:1029A00054F82260834288BF1846A9EB060383428D
:1029B00088BF04EB8207BCF1020F0FD0023101F097
:1029C0000F0101EB410154F821208342A9EB0202DF
:1029D00088BF1846824288BF04EB81073868A9EB9C
:1029E0000000322820D3B97994F8000201F10B05D8
:1029F00000F07AF8854217D8B988F87940F2FF33A9
:102A0000BE793A7ACDE9001340F2803340F080017C
:102A1000C2F200032046029600F06CF840F25830F3
:102A2000C2F200000068386040F25830C2F2000084
:102A30000068D4F8C010401A1A281ED3A9EB080069
:102A4000C0087C2819D894F8000200F04DF80B2833
:102A500013D3234613F8E82FFF2000210127CDE9E7
:102A600000102046FF21029700F044F840F2583051
:102A7000C2F200000068C4F8C00009B0BDE8F08FE1
:102A80002DE9F04184B0064690F800021C469046BD
:102A90000F4603F10B0500F027F885420CD84FF6DE
:102AA000FF700021CDE9001007F03F013046002201
:102AB0004346029400F01EF804B0BDE8F081000027
:102AC000FDF73ABF80B582B040F274008DF8071070
:102AD000C2F200000DF1070101220A23FEF732FFC6
:102AE00002B080BD704700004FF4007070470000D6
:102AF000704700002DE9F04F81B0044602200C9E83
:102B0000DDE90A5784F8FF014FF0FF30C4F8F40103
:102B100094F800029A46904689464FFA81FBFFF7E7
:102B2000E7FF94F80002AA21FFF7CCFF94F8000217
:102B3000AA21FFF7C7FF94F80002AA21FFF7C2FFFE
:102B400020464946012200F089F8BBF1FF3F04DC32
:102B500020464146012200F081F8204631460122FC
:102B600000F07CF86EB100BFA8B21AF80010204641
:102B7000012200F073F8681C013E310600EA0705E7
:102B8000F2D1D4F8F401C64394F80002350E294678
:102B9000FFF798FFAA2D0BD194F8FF010138010629
:102BA00084F8FF0107D194F800025521FFF78AFF4E
:102BB000022084F8FF0194F80002C6F30745294675
:102BC000FFF780FFAA2D0BD194F8FF010138010611
:102BD00084F8FF0107D194F800025521FFF772FF36
:102BE000022084F8FF0194F80002C6F30725294665
:102BF000FFF768FFAA2D0BD194F8FF0101380106F9
:102C000084F8FF0107D194F800025521FFF75AFF1D
:102C1000022084F8FF0194F80002F5B22946FFF77C
:102C200051FFAA2D0BD194F8FF010138010684F859
:102C3000FF0107D194F800025521FFF743FF02205E
:102C400084F8FF0194F800025521FFF73BFF94F848
:102C5000000201B0BDE8F04FFFF744BF70B5044675
:102C600090F8000216460D46FFF72CFF36B9AA2D44
:102C700046D0022084F8FF0170BD00BFD4F8F401F3
:102C800048F2203C80EA0501CEF6B85C8CEA51029D
:102C9000CB0708BF4A088E074CF219408CEA520352
:102CA0004FEA4176C0F26D7048F6320E58BF5308B5
:102CB00000EAE670C0F6DB6E0E0748BF80EA0E0041
:102CC00041F2640ECE06C1F6B75E48BF80EA0E0040
:102CD00042F2C806C3F66E36890648BF704080EAE5
:102CE000931044F29011C7F2DC61920648BF48404D
:102CF000990648BF80EA0C00C4F8F401AA2DB8D1A7
:102D000094F8FF010138010684F8FF0118BF70BD77
:102D100094F800025521FFF7D5FE022084F8FF0148
:102D200070BD00000000000000000102030406075F
:102D30000809000000000102030401020203040567
:102D4000060708090A0B0C0D0E0F1010702D000855
:102D5000000000201000000050010008802D000835
:102D600010000020780D0000700100080000000035
:102D7000010000001000000000127A00004000086E
:04000005080000ED02
:00000001FF
